{
  "_format": "hh-sol-artifact-1",
  "contractName": "Marketplace",
  "sourceName": "core/Marketplace.sol",
  "abi": [
    {
      "inputs": [
        {
          "internalType": "address",
          "name": "initialOwner",
          "type": "address"
        },
        {
          "internalType": "contract PropertyRegistry",
          "name": "_registry",
          "type": "address"
        }
      ],
      "stateMutability": "nonpayable",
      "type": "constructor"
    },
    {
      "inputs": [
        {
          "internalType": "address",
          "name": "owner",
          "type": "address"
        }
      ],
      "name": "OwnableInvalidOwner",
      "type": "error"
    },
    {
      "inputs": [
        {
          "internalType": "address",
          "name": "account",
          "type": "address"
        }
      ],
      "name": "OwnableUnauthorizedAccount",
      "type": "error"
    },
    {
      "inputs": [],
      "name": "ReentrancyGuardReentrantCall",
      "type": "error"
    },
    {
      "anonymous": false,
      "inputs": [
        {
          "indexed": true,
          "internalType": "uint256",
          "name": "propertyId",
          "type": "uint256"
        },
        {
          "indexed": true,
          "internalType": "address",
          "name": "account",
          "type": "address"
        },
        {
          "indexed": false,
          "internalType": "uint256",
          "name": "amount",
          "type": "uint256"
        }
      ],
      "name": "DividendClaimed",
      "type": "event"
    },
    {
      "anonymous": false,
      "inputs": [
        {
          "indexed": true,
          "internalType": "uint256",
          "name": "propertyId",
          "type": "uint256"
        },
        {
          "indexed": false,
          "internalType": "uint256",
          "name": "amount",
          "type": "uint256"
        }
      ],
      "name": "DividendsDeposited",
      "type": "event"
    },
    {
      "anonymous": false,
      "inputs": [
        {
          "indexed": true,
          "internalType": "uint256",
          "name": "listingId",
          "type": "uint256"
        }
      ],
      "name": "ListingCancelled",
      "type": "event"
    },
    {
      "anonymous": false,
      "inputs": [
        {
          "indexed": true,
          "internalType": "uint256",
          "name": "listingId",
          "type": "uint256"
        },
        {
          "indexed": true,
          "internalType": "uint256",
          "name": "propertyId",
          "type": "uint256"
        },
        {
          "indexed": true,
          "internalType": "address",
          "name": "seller",
          "type": "address"
        },
        {
          "indexed": false,
          "internalType": "uint256",
          "name": "amount",
          "type": "uint256"
        },
        {
          "indexed": false,
          "internalType": "uint256",
          "name": "pricePerShareWei",
          "type": "uint256"
        }
      ],
      "name": "ListingCreated",
      "type": "event"
    },
    {
      "anonymous": false,
      "inputs": [
        {
          "indexed": true,
          "internalType": "uint256",
          "name": "listingId",
          "type": "uint256"
        },
        {
          "indexed": true,
          "internalType": "address",
          "name": "buyer",
          "type": "address"
        },
        {
          "indexed": false,
          "internalType": "uint256",
          "name": "amount",
          "type": "uint256"
        }
      ],
      "name": "ListingFilled",
      "type": "event"
    },
    {
      "anonymous": false,
      "inputs": [
        {
          "indexed": true,
          "internalType": "address",
          "name": "previousOwner",
          "type": "address"
        },
        {
          "indexed": true,
          "internalType": "address",
          "name": "newOwner",
          "type": "address"
        }
      ],
      "name": "OwnershipTransferred",
      "type": "event"
    },
    {
      "anonymous": false,
      "inputs": [
        {
          "indexed": true,
          "internalType": "uint256",
          "name": "propertyId",
          "type": "uint256"
        },
        {
          "indexed": false,
          "internalType": "address",
          "name": "token",
          "type": "address"
        },
        {
          "indexed": false,
          "internalType": "uint256",
          "name": "totalShares",
          "type": "uint256"
        },
        {
          "indexed": false,
          "internalType": "uint256",
          "name": "sharePriceWei",
          "type": "uint256"
        },
        {
          "indexed": false,
          "internalType": "address",
          "name": "owner",
          "type": "address"
        },
        {
          "indexed": false,
          "internalType": "string",
          "name": "metadataURI",
          "type": "string"
        }
      ],
      "name": "PropertyCreated",
      "type": "event"
    },
    {
      "anonymous": false,
      "inputs": [
        {
          "indexed": true,
          "internalType": "uint256",
          "name": "propertyId",
          "type": "uint256"
        },
        {
          "indexed": true,
          "internalType": "address",
          "name": "buyer",
          "type": "address"
        },
        {
          "indexed": false,
          "internalType": "uint256",
          "name": "amount",
          "type": "uint256"
        },
        {
          "indexed": false,
          "internalType": "uint256",
          "name": "pricePerShareWei",
          "type": "uint256"
        }
      ],
      "name": "SharesPurchased",
      "type": "event"
    },
    {
      "anonymous": false,
      "inputs": [
        {
          "indexed": true,
          "internalType": "uint256",
          "name": "propertyId",
          "type": "uint256"
        },
        {
          "indexed": true,
          "internalType": "address",
          "name": "seller",
          "type": "address"
        },
        {
          "indexed": false,
          "internalType": "uint256",
          "name": "amount",
          "type": "uint256"
        },
        {
          "indexed": false,
          "internalType": "uint256",
          "name": "pricePerShareWei",
          "type": "uint256"
        },
        {
          "indexed": false,
          "internalType": "uint256",
          "name": "listingId",
          "type": "uint256"
        }
      ],
      "name": "SharesSold",
      "type": "event"
    },
    {
      "inputs": [
        {
          "internalType": "uint256",
          "name": "propertyId",
          "type": "uint256"
        },
        {
          "internalType": "address",
          "name": "token",
          "type": "address"
        },
        {
          "internalType": "uint256",
          "name": "amount",
          "type": "uint256"
        },
        {
          "internalType": "uint256",
          "name": "pricePerShareWei",
          "type": "uint256"
        }
      ],
      "name": "buyShares",
      "outputs": [],
      "stateMutability": "payable",
      "type": "function"
    },
    {
      "inputs": [
        {
          "internalType": "address",
          "name": "token",
          "type": "address"
        },
        {
          "internalType": "uint256",
          "name": "listingId",
          "type": "uint256"
        }
      ],
      "name": "cancelListing",
      "outputs": [],
      "stateMutability": "nonpayable",
      "type": "function"
    },
    {
      "inputs": [
        {
          "internalType": "address",
          "name": "token",
          "type": "address"
        },
        {
          "internalType": "uint256",
          "name": "propertyId",
          "type": "uint256"
        }
      ],
      "name": "claimDividends",
      "outputs": [],
      "stateMutability": "nonpayable",
      "type": "function"
    },
    {
      "inputs": [
        {
          "internalType": "uint256",
          "name": "",
          "type": "uint256"
        },
        {
          "internalType": "address",
          "name": "",
          "type": "address"
        }
      ],
      "name": "claimedDividends",
      "outputs": [
        {
          "internalType": "uint256",
          "name": "",
          "type": "uint256"
        }
      ],
      "stateMutability": "view",
      "type": "function"
    },
    {
      "inputs": [
        {
          "internalType": "address",
          "name": "token",
          "type": "address"
        },
        {
          "internalType": "uint256",
          "name": "propertyId",
          "type": "uint256"
        },
        {
          "internalType": "uint256",
          "name": "amount",
          "type": "uint256"
        },
        {
          "internalType": "uint256",
          "name": "pricePerShareWei",
          "type": "uint256"
        }
      ],
      "name": "createListing",
      "outputs": [
        {
          "internalType": "uint256",
          "name": "listingId",
          "type": "uint256"
        }
      ],
      "stateMutability": "nonpayable",
      "type": "function"
    },
    {
      "inputs": [
        {
          "internalType": "string",
          "name": "name_",
          "type": "string"
        },
        {
          "internalType": "string",
          "name": "symbol_",
          "type": "string"
        },
        {
          "internalType": "string",
          "name": "metadataURI",
          "type": "string"
        },
        {
          "internalType": "uint256",
          "name": "totalShares",
          "type": "uint256"
        },
        {
          "internalType": "uint256",
          "name": "sharePriceWei",
          "type": "uint256"
        },
        {
          "internalType": "address",
          "name": "propertyOwner",
          "type": "address"
        }
      ],
      "name": "createProperty",
      "outputs": [
        {
          "internalType": "uint256",
          "name": "propertyId",
          "type": "uint256"
        },
        {
          "internalType": "address",
          "name": "token",
          "type": "address"
        }
      ],
      "stateMutability": "nonpayable",
      "type": "function"
    },
    {
      "inputs": [
        {
          "internalType": "uint256",
          "name": "propertyId",
          "type": "uint256"
        }
      ],
      "name": "depositDividends",
      "outputs": [],
      "stateMutability": "payable",
      "type": "function"
    },
    {
      "inputs": [
        {
          "internalType": "uint256",
          "name": "",
          "type": "uint256"
        }
      ],
      "name": "dividendPools",
      "outputs": [
        {
          "internalType": "uint256",
          "name": "",
          "type": "uint256"
        }
      ],
      "stateMutability": "view",
      "type": "function"
    },
    {
      "inputs": [
        {
          "internalType": "address",
          "name": "token",
          "type": "address"
        },
        {
          "internalType": "uint256",
          "name": "listingId",
          "type": "uint256"
        },
        {
          "internalType": "uint256",
          "name": "amount",
          "type": "uint256"
        }
      ],
      "name": "fillListing",
      "outputs": [],
      "stateMutability": "payable",
      "type": "function"
    },
    {
      "inputs": [
        {
          "internalType": "uint256",
          "name": "",
          "type": "uint256"
        }
      ],
      "name": "listings",
      "outputs": [
        {
          "internalType": "uint256",
          "name": "propertyId",
          "type": "uint256"
        },
        {
          "internalType": "address",
          "name": "seller",
          "type": "address"
        },
        {
          "internalType": "uint256",
          "name": "amount",
          "type": "uint256"
        },
        {
          "internalType": "uint256",
          "name": "pricePerShareWei",
          "type": "uint256"
        },
        {
          "internalType": "bool",
          "name": "active",
          "type": "bool"
        }
      ],
      "stateMutability": "view",
      "type": "function"
    },
    {
      "inputs": [],
      "name": "nextListingId",
      "outputs": [
        {
          "internalType": "uint256",
          "name": "",
          "type": "uint256"
        }
      ],
      "stateMutability": "view",
      "type": "function"
    },
    {
      "inputs": [],
      "name": "owner",
      "outputs": [
        {
          "internalType": "address",
          "name": "",
          "type": "address"
        }
      ],
      "stateMutability": "view",
      "type": "function"
    },
    {
      "inputs": [],
      "name": "registry",
      "outputs": [
        {
          "internalType": "contract PropertyRegistry",
          "name": "",
          "type": "address"
        }
      ],
      "stateMutability": "view",
      "type": "function"
    },
    {
      "inputs": [],
      "name": "renounceOwnership",
      "outputs": [],
      "stateMutability": "nonpayable",
      "type": "function"
    },
    {
      "inputs": [
        {
          "internalType": "address",
          "name": "newOwner",
          "type": "address"
        }
      ],
      "name": "transferOwnership",
      "outputs": [],
      "stateMutability": "nonpayable",
      "type": "function"
    }
  ],
  "bytecode": "0x60a06040523480156200001157600080fd5b50604051620024f8380380620024f88339810160408190526200003491620000f0565b816001600160a01b0381166200006457604051631e4fbdf760e01b81526000600482015260240160405180910390fd5b6200006f8162000087565b50600180556001600160a01b0316608052506200012f565b600080546001600160a01b038381166001600160a01b0319831681178455604051919092169283917f8be0079c531659141344cd1fd0a4f28419497f9722a3daafe3b4186f6b6457e09190a35050565b6001600160a01b0381168114620000ed57600080fd5b50565b600080604083850312156200010457600080fd5b82516200011181620000d7565b60208401519092506200012481620000d7565b809150509250929050565b6080516123a662000152600039600081816101ce015261052301526123a66000f3fe608060405260043610620000fb5760003560e01c8063aaccf1ec1162000095578063cbe8a5241162000060578063cbe8a52414620002c5578063cff6356714620002dc578063de74e57b1462000318578063f2fde38b14620003a657600080fd5b8063aaccf1ec1462000240578063afcb75aa1462000258578063b2ddee061462000289578063c78245ce14620002ae57600080fd5b8063715018a611620000d6578063715018a614620001a25780637b10399914620001ba5780638da5cb5b1462000209578063954e8c2d146200022957600080fd5b8063131197fc146200010057806343e9585f146200014757806370cdec3d146200016e575b600080fd5b3480156200010d57600080fd5b50620001256200011f3660046200128e565b620003cb565b604080519283526001600160a01b039091166020830152015b60405180910390f35b3480156200015457600080fd5b506200016c6200016636600462001345565b620005fb565b005b3480156200017b57600080fd5b50620001936200018d36600462001372565b620008c5565b6040519081526020016200013e565b348015620001af57600080fd5b506200016c62000aeb565b348015620001c757600080fd5b50620001f07f000000000000000000000000000000000000000000000000000000000000000081565b6040516001600160a01b0390911681526020016200013e565b3480156200021657600080fd5b506000546001600160a01b0316620001f0565b6200016c6200023a366004620013ae565b62000b03565b3480156200024d57600080fd5b506200019360045481565b3480156200026557600080fd5b506200019362000277366004620013ec565b60026020526000908152604090205481565b3480156200029657600080fd5b506200016c620002a836600462001345565b62000c2c565b6200016c620002bf36600462001406565b62000d7c565b6200016c620002d6366004620013ec565b62001026565b348015620002e957600080fd5b5062000193620002fb3660046200143c565b600360209081526000928352604080842090915290825290205481565b3480156200032557600080fd5b506200037362000337366004620013ec565b6005602052600090815260409020805460018201546002830154600384015460049094015492936001600160a01b039092169290919060ff1685565b604080519586526001600160a01b0390941660208601529284019190915260608301521515608082015260a0016200013e565b348015620003b357600080fd5b506200016c620003c53660046200146b565b620010ca565b600080620003d86200110e565b600085116200041f5760405162461bcd60e51b815260206004820152600e60248201526d494e56414c49445f53484152455360901b60448201526064015b60405180910390fd5b6001600160a01b038316620004675760405162461bcd60e51b815260206004820152600d60248201526c24a72b20a624a22fa7aba722a960991b604482015260640162000416565b60008888306040516200047a90620011b8565b6200048893929190620014d8565b604051809103906000f080158015620004a5573d6000803e3d6000fd5b506040516340c10f1960e01b81526001600160a01b03868116600483015260248201899052919250908216906340c10f1990604401600060405180830381600087803b158015620004f557600080fd5b505af11580156200050a573d6000803e3d6000fd5b5050604051632b9bcb4960e01b81526001600160a01b037f0000000000000000000000000000000000000000000000000000000000000000169250632b9bcb49915062000564908a9085908b908b908b906004016200151a565b6020604051808303816000875af115801562000584573d6000803e3d6000fd5b505050506040513d601f19601f82011682018060405250810190620005aa919062001561565b9250827f9fe11725b5e47fa4a375d31017b08f9f3f919a6f5a1cc3fd1e66b1581017136f828888888c604051620005e69594939291906200157b565b60405180910390a29050965096945050505050565b620006056200113d565b60008290506000816001600160a01b03166318160ddd6040518163ffffffff1660e01b8152600401602060405180830381865afa1580156200064b573d6000803e3d6000fd5b505050506040513d601f19601f8201168201806040525081019062000671919062001561565b905060008111620006b15760405162461bcd60e51b81526020600482015260096024820152684e4f5f535550504c5960b81b604482015260640162000416565b60008381526002602052604090205480620006f95760405162461bcd60e51b81526020600482015260076024820152661393d7d413d3d360ca1b604482015260640162000416565b6040516370a0823160e01b81523360048201526000906001600160a01b038516906370a0823190602401602060405180830381865afa15801562000741573d6000803e3d6000fd5b505050506040513d601f19601f8201168201806040525081019062000767919062001561565b905060008111620007a95760405162461bcd60e51b815260206004820152600b60248201526a4e4f5f484f4c44494e475360a81b604482015260640162000416565b600083620007b88385620015d8565b620007c49190620015f8565b905080600260008881526020019081526020016000206000828254620007eb91906200161b565b9091555050604051600090339083908381818185875af1925050503d806000811462000834576040519150601f19603f3d011682016040523d82523d6000602084013e62000839565b606091505b50509050806200087a5760405162461bcd60e51b815260206004820152600b60248201526a14105653d55517d190525360aa1b604482015260640162000416565b604051828152339088907fa1594d215a577c1905bcb0b5b186a40a0104714277441d4b2ac428c89bf7f4b19060200160405180910390a3505050505050620008c160018055565b5050565b6000620008d16200113d565b60008311620008f45760405162461bcd60e51b8152600401620004169062001631565b6040516370a0823160e01b8152336004820152859084906001600160a01b038316906370a0823190602401602060405180830381865afa1580156200093d573d6000803e3d6000fd5b505050506040513d601f19601f8201168201806040525081019062000963919062001561565b1015620009a25760405162461bcd60e51b815260206004820152600c60248201526b125394d551919250d251539560a21b604482015260640162000416565b604051632770a7eb60e21b8152336004820152602481018590526001600160a01b03821690639dc29fac90604401600060405180830381600087803b158015620009eb57600080fd5b505af115801562000a00573d6000803e3d6000fd5b5050505060046000815462000a159062001659565b91829055506040805160a0810182528781523360208083018281528385018a8152606085018a815260016080870181815260008a81526005875289902097518855935190870180546001600160a01b0319166001600160a01b0390921691909117905590516002860155516003850155516004909301805460ff1916931515939093179092558251888152918201879052929450879185917f492d2294f1b8a982001da6ecb3de3a374ad9c29c9c8d5ad43da90cc50b585136910160405180910390a45062000ae360018055565b949350505050565b62000af56200110e565b62000b01600062001168565b565b62000b0d6200113d565b6000821162000b305760405162461bcd60e51b8152600401620004169062001631565b62000b3c8183620015d8565b341462000b7a5760405162461bcd60e51b815260206004820152600b60248201526a0929cac82989288be8aa8960ab1b604482015260640162000416565b6040516340c10f1960e01b81523360048201526024810183905283906001600160a01b038216906340c10f1990604401600060405180830381600087803b15801562000bc557600080fd5b505af115801562000bda573d6000803e3d6000fd5b505060408051868152602081018690523393508892507fce81571c08c76465bdf390ad1abe80af8c51c6c4566e3485f9395f13d5ad6328910160405180910390a35062000c2660018055565b50505050565b62000c366200113d565b6000818152600560205260409020600481015460ff1662000c875760405162461bcd60e51b815260206004820152600a6024820152694e4f545f41435449564560b01b604482015260640162000416565b60018101546001600160a01b0316331462000cd25760405162461bcd60e51b815260206004820152600a6024820152692727aa2fa9a2a62622a960b11b604482015260640162000416565b6004818101805460ff1916905560028201546040516340c10f1960e01b8152339281019290925260248201526001600160a01b038416906340c10f1990604401600060405180830381600087803b15801562000d2d57600080fd5b505af115801562000d42573d6000803e3d6000fd5b50506040518492507f411aee90354c51b1b04cd563fcab2617142a9d50da19232d888547c8a1b7fd8a9150600090a250620008c160018055565b62000d866200113d565b6000828152600560205260409020600481015460ff1662000dd75760405162461bcd60e51b815260206004820152600a6024820152694e4f545f41435449564560b01b604482015260640162000416565b60008211801562000dec575080600201548211155b62000e0b5760405162461bcd60e51b8152600401620004169062001631565b600381015462000e1c9083620015d8565b341462000e5a5760405162461bcd60e51b815260206004820152600b60248201526a0929cac82989288be8aa8960ab1b604482015260640162000416565b8181600201600082825462000e7091906200161b565b909155505060018101546040516000916001600160a01b03169034908381818185875af1925050503d806000811462000ec6576040519150601f19603f3d011682016040523d82523d6000602084013e62000ecb565b606091505b505090508062000f095760405162461bcd60e51b815260206004820152600860248201526714105657d190525360c21b604482015260640162000416565b6040516340c10f1960e01b8152336004820152602481018490526001600160a01b038616906340c10f1990604401600060405180830381600087803b15801562000f5257600080fd5b505af115801562000f67573d6000803e3d6000fd5b50506040518581523392508691507ff4db9839cb6de8cbeca7b39bc74f8fd501b7790ee5ac387e2b46f9f93fbe11989060200160405180910390a3816002015460000362000fbc5760048201805460ff191690555b60018201548254600384015460408051878152602081019290925281018790526001600160a01b03909216917f3af86dc63bd5b48eb0bc47e00838d220409d0c19a0743956381d5296335226269060600160405180910390a350506200102160018055565b505050565b620010306200110e565b600034116200106d5760405162461bcd60e51b81526020600482015260086024820152674e4f5f56414c554560c01b604482015260640162000416565b600081815260026020526040812080543492906200108d90849062001675565b909155505060405134815281907fb9ebcb18b045f112fc4335f8a337b6daef95ab3d79fcaf32aab73f57e6b12f819060200160405180910390a250565b620010d46200110e565b6001600160a01b0381166200110057604051631e4fbdf760e01b81526000600482015260240162000416565b6200110b8162001168565b50565b6000546001600160a01b0316331462000b015760405163118cdaa760e01b815233600482015260240162000416565b6002600154036200116157604051633ee5aeb560e01b815260040160405180910390fd5b6002600155565b600080546001600160a01b038381166001600160a01b0319831681178455604051919092169283917f8be0079c531659141344cd1fd0a4f28419497f9722a3daafe3b4186f6b6457e09190a35050565b610ce5806200168c83390190565b634e487b7160e01b600052604160045260246000fd5b600082601f830112620011ee57600080fd5b813567ffffffffffffffff808211156200120c576200120c620011c6565b604051601f8301601f19908116603f01168101908282118183101715620012375762001237620011c6565b816040528381528660208588010111156200125157600080fd5b836020870160208301376000602085830101528094505050505092915050565b80356001600160a01b03811681146200128957600080fd5b919050565b60008060008060008060c08789031215620012a857600080fd5b863567ffffffffffffffff80821115620012c157600080fd5b620012cf8a838b01620011dc565b97506020890135915080821115620012e657600080fd5b620012f48a838b01620011dc565b965060408901359150808211156200130b57600080fd5b506200131a89828a01620011dc565b94505060608701359250608087013591506200133960a0880162001271565b90509295509295509295565b600080604083850312156200135957600080fd5b620013648362001271565b946020939093013593505050565b600080600080608085870312156200138957600080fd5b620013948562001271565b966020860135965060408601359560600135945092505050565b60008060008060808587031215620013c557600080fd5b84359350620013d76020860162001271565b93969395505050506040820135916060013590565b600060208284031215620013ff57600080fd5b5035919050565b6000806000606084860312156200141c57600080fd5b620014278462001271565b95602085013595506040909401359392505050565b600080604083850312156200145057600080fd5b82359150620014626020840162001271565b90509250929050565b6000602082840312156200147e57600080fd5b620014898262001271565b9392505050565b6000815180845260005b81811015620014b8576020818501810151868301820152016200149a565b506000602082860101526020601f19601f83011685010191505092915050565b606081526000620014ed606083018662001490565b828103602084015262001501818662001490565b91505060018060a01b0383166040830152949350505050565b60a0815260006200152f60a083018862001490565b6001600160a01b0396871660208401526040830195909552506060810192909252909216608090920191909152919050565b6000602082840312156200157457600080fd5b5051919050565b6001600160a01b03868116825260208201869052604082018590528316606082015260a060808201819052600090620015b79083018462001490565b979650505050505050565b634e487b7160e01b600052601160045260246000fd5b8082028115828204841417620015f257620015f2620015c2565b92915050565b6000826200161657634e487b7160e01b600052601260045260246000fd5b500490565b81810381811115620015f257620015f2620015c2565b6020808252600e908201526d1253959053125117d05353d5539560921b604082015260600190565b6000600182016200166e576200166e620015c2565b5060010190565b80820180821115620015f257620015f2620015c256fe60806040523480156200001157600080fd5b5060405162000ce538038062000ce58339810160408190526200003491620001b2565b8083836003620000458382620002ce565b506004620000548282620002ce565b5050506001600160a01b0381166200008657604051631e4fbdf760e01b81526000600482015260240160405180910390fd5b62000091816200009b565b505050506200039a565b600580546001600160a01b038381166001600160a01b0319831681179093556040519116919082907f8be0079c531659141344cd1fd0a4f28419497f9722a3daafe3b4186f6b6457e090600090a35050565b634e487b7160e01b600052604160045260246000fd5b600082601f8301126200011557600080fd5b81516001600160401b0380821115620001325762000132620000ed565b604051601f8301601f19908116603f011681019082821181831017156200015d576200015d620000ed565b816040528381526020925086838588010111156200017a57600080fd5b600091505b838210156200019e57858201830151818301840152908201906200017f565b600093810190920192909252949350505050565b600080600060608486031215620001c857600080fd5b83516001600160401b0380821115620001e057600080fd5b620001ee8783880162000103565b945060208601519150808211156200020557600080fd5b50620002148682870162000103565b604086015190935090506001600160a01b03811681146200023457600080fd5b809150509250925092565b600181811c908216806200025457607f821691505b6020821081036200027557634e487b7160e01b600052602260045260246000fd5b50919050565b601f821115620002c957600081815260208120601f850160051c81016020861015620002a45750805b601f850160051c820191505b81811015620002c557828155600101620002b0565b5050505b505050565b81516001600160401b03811115620002ea57620002ea620000ed565b6200030281620002fb84546200023f565b846200027b565b602080601f8311600181146200033a5760008415620003215750858301515b600019600386901b1c1916600185901b178555620002c5565b600085815260208120601f198616915b828110156200036b578886015182559484019460019091019084016200034a565b50858210156200038a5787850151600019600388901b60f8161c191681555b5050505050600190811b01905550565b61093b80620003aa6000396000f3fe608060405234801561001057600080fd5b50600436106100ea5760003560e01c8063715018a61161008c5780639dc29fac116100665780639dc29fac146101cd578063a9059cbb146101e0578063dd62ed3e146101f3578063f2fde38b1461022c57600080fd5b8063715018a6146101a25780638da5cb5b146101aa57806395d89b41146101c557600080fd5b806323b872dd116100c857806323b872dd14610142578063313ce5671461015557806340c10f191461016457806370a082311461017957600080fd5b806306fdde03146100ef578063095ea7b31461010d57806318160ddd14610130575b600080fd5b6100f761023f565b6040516101049190610785565b60405180910390f35b61012061011b3660046107ef565b6102d1565b6040519015158152602001610104565b6002545b604051908152602001610104565b610120610150366004610819565b6102eb565b60405160128152602001610104565b6101776101723660046107ef565b61030f565b005b610134610187366004610855565b6001600160a01b031660009081526020819052604090205490565b610177610325565b6005546040516001600160a01b039091168152602001610104565b6100f7610339565b6101776101db3660046107ef565b610348565b6101206101ee3660046107ef565b61035a565b610134610201366004610877565b6001600160a01b03918216600090815260016020908152604080832093909416825291909152205490565b61017761023a366004610855565b610368565b60606003805461024e906108aa565b80601f016020809104026020016040519081016040528092919081815260200182805461027a906108aa565b80156102c75780601f1061029c576101008083540402835291602001916102c7565b820191906000526020600020905b8154815290600101906020018083116102aa57829003601f168201915b5050505050905090565b6000336102df8185856103ab565b60019150505b92915050565b6000336102f98582856103bd565b61030485858561043c565b506001949350505050565b61031761049b565b61032182826104c8565b5050565b61032d61049b565b61033760006104fe565b565b60606004805461024e906108aa565b61035061049b565b6103218282610550565b6000336102df81858561043c565b61037061049b565b6001600160a01b03811661039f57604051631e4fbdf760e01b8152600060048201526024015b60405180910390fd5b6103a8816104fe565b50565b6103b88383836001610586565b505050565b6001600160a01b03838116600090815260016020908152604080832093861683529290522054600019811015610436578181101561042757604051637dc7a0d960e11b81526001600160a01b03841660048201526024810182905260448101839052606401610396565b61043684848484036000610586565b50505050565b6001600160a01b03831661046657604051634b637e8f60e11b815260006004820152602401610396565b6001600160a01b0382166104905760405163ec442f0560e01b815260006004820152602401610396565b6103b883838361065b565b6005546001600160a01b031633146103375760405163118cdaa760e01b8152336004820152602401610396565b6001600160a01b0382166104f25760405163ec442f0560e01b815260006004820152602401610396565b6103216000838361065b565b600580546001600160a01b038381166001600160a01b0319831681179093556040519116919082907f8be0079c531659141344cd1fd0a4f28419497f9722a3daafe3b4186f6b6457e090600090a35050565b6001600160a01b03821661057a57604051634b637e8f60e11b815260006004820152602401610396565b6103218260008361065b565b6001600160a01b0384166105b05760405163e602df0560e01b815260006004820152602401610396565b6001600160a01b0383166105da57604051634a1406b160e11b815260006004820152602401610396565b6001600160a01b038085166000908152600160209081526040808320938716835292905220829055801561043657826001600160a01b0316846001600160a01b03167f8c5be1e5ebec7d5bd14f71427d1e84f3dd0314c0f7b2291e5b200ac8c7c3b9258460405161064d91815260200190565b60405180910390a350505050565b6001600160a01b03831661068657806002600082825461067b91906108e4565b909155506106f89050565b6001600160a01b038316600090815260208190526040902054818110156106d95760405163391434e360e21b81526001600160a01b03851660048201526024810182905260448101839052606401610396565b6001600160a01b03841660009081526020819052604090209082900390555b6001600160a01b03821661071457600280548290039055610733565b6001600160a01b03821660009081526020819052604090208054820190555b816001600160a01b0316836001600160a01b03167fddf252ad1be2c89b69c2b068fc378daa952ba7f163c4a11628f55a4df523b3ef8360405161077891815260200190565b60405180910390a3505050565b600060208083528351808285015260005b818110156107b257858101830151858201604001528201610796565b506000604082860101526040601f19601f8301168501019250505092915050565b80356001600160a01b03811681146107ea57600080fd5b919050565b6000806040838503121561080257600080fd5b61080b836107d3565b946020939093013593505050565b60008060006060848603121561082e57600080fd5b610837846107d3565b9250610845602085016107d3565b9150604084013590509250925092565b60006020828403121561086757600080fd5b610870826107d3565b9392505050565b6000806040838503121561088a57600080fd5b610893836107d3565b91506108a1602084016107d3565b90509250929050565b600181811c908216806108be57607f821691505b6020821081036108de57634e487b7160e01b600052602260045260246000fd5b50919050565b808201808211156102e557634e487b7160e01b600052601160045260246000fdfea2646970667358221220eac156a41a862d83bde3218cecff06cd83c32223de3ae8061725c0ef622a2e7b64736f6c63430008140033a2646970667358221220185a060d8056baae68a10352516a5931b04c49e08521c5de4d49128c7451073b64736f6c63430008140033",
  "linkReferences": {},
  "deployedLinkReferences": {}
}