{
  "_format": "hh-sol-artifact-1",
  "contractName": "PropertyRegistry",
  "sourceName": "core/PropertyRegistry.sol",
  "abi": [
    {
      "inputs": [
        {
          "internalType": "address",
          "name": "initialOwner",
          "type": "address"
        }
      ],
      "stateMutability": "nonpayable",
      "type": "constructor"
    },
    {
      "inputs": [
        {
          "internalType": "address",
          "name": "owner",
          "type": "address"
        }
      ],
      "name": "OwnableInvalidOwner",
      "type": "error"
    },
    {
      "inputs": [
        {
          "internalType": "address",
          "name": "account",
          "type": "address"
        }
      ],
      "name": "OwnableUnauthorizedAccount",
      "type": "error"
    },
    {
      "anonymous": false,
      "inputs": [
        {
          "indexed": true,
          "internalType": "address",
          "name": "previousOwner",
          "type": "address"
        },
        {
          "indexed": true,
          "internalType": "address",
          "name": "newOwner",
          "type": "address"
        }
      ],
      "name": "OwnershipTransferred",
      "type": "event"
    },
    {
      "anonymous": false,
      "inputs": [
        {
          "indexed": true,
          "internalType": "uint256",
          "name": "propertyId",
          "type": "uint256"
        },
        {
          "indexed": true,
          "internalType": "address",
          "name": "token",
          "type": "address"
        },
        {
          "indexed": false,
          "internalType": "uint256",
          "name": "totalShares",
          "type": "uint256"
        },
        {
          "indexed": false,
          "internalType": "uint256",
          "name": "sharePriceWei",
          "type": "uint256"
        },
        {
          "indexed": false,
          "internalType": "address",
          "name": "owner",
          "type": "address"
        },
        {
          "indexed": false,
          "internalType": "string",
          "name": "metadataURI",
          "type": "string"
        }
      ],
      "name": "PropertyCreated",
      "type": "event"
    },
    {
      "anonymous": false,
      "inputs": [
        {
          "indexed": true,
          "internalType": "uint256",
          "name": "propertyId",
          "type": "uint256"
        },
        {
          "indexed": false,
          "internalType": "bool",
          "name": "active",
          "type": "bool"
        }
      ],
      "name": "PropertyStatusChanged",
      "type": "event"
    },
    {
      "inputs": [
        {
          "internalType": "string",
          "name": "metadataURI",
          "type": "string"
        },
        {
          "internalType": "address",
          "name": "fractionalToken",
          "type": "address"
        },
        {
          "internalType": "uint256",
          "name": "totalShares",
          "type": "uint256"
        },
        {
          "internalType": "uint256",
          "name": "sharePriceWei",
          "type": "uint256"
        },
        {
          "internalType": "address",
          "name": "propertyOwner",
          "type": "address"
        }
      ],
      "name": "createProperty",
      "outputs": [
        {
          "internalType": "uint256",
          "name": "propertyId",
          "type": "uint256"
        }
      ],
      "stateMutability": "nonpayable",
      "type": "function"
    },
    {
      "inputs": [
        {
          "internalType": "uint256",
          "name": "start",
          "type": "uint256"
        },
        {
          "internalType": "uint256",
          "name": "count",
          "type": "uint256"
        }
      ],
      "name": "getAllProperties",
      "outputs": [
        {
          "components": [
            {
              "internalType": "string",
              "name": "metadataURI",
              "type": "string"
            },
            {
              "internalType": "address",
              "name": "fractionalToken",
              "type": "address"
            },
            {
              "internalType": "uint256",
              "name": "totalShares",
              "type": "uint256"
            },
            {
              "internalType": "uint256",
              "name": "sharePriceWei",
              "type": "uint256"
            },
            {
              "internalType": "address",
              "name": "propertyOwner",
              "type": "address"
            },
            {
              "internalType": "bool",
              "name": "active",
              "type": "bool"
            }
          ],
          "internalType": "struct PropertyRegistry.Property[]",
          "name": "items",
          "type": "tuple[]"
        }
      ],
      "stateMutability": "view",
      "type": "function"
    },
    {
      "inputs": [
        {
          "internalType": "uint256",
          "name": "propertyId",
          "type": "uint256"
        }
      ],
      "name": "getProperty",
      "outputs": [
        {
          "components": [
            {
              "internalType": "string",
              "name": "metadataURI",
              "type": "string"
            },
            {
              "internalType": "address",
              "name": "fractionalToken",
              "type": "address"
            },
            {
              "internalType": "uint256",
              "name": "totalShares",
              "type": "uint256"
            },
            {
              "internalType": "uint256",
              "name": "sharePriceWei",
              "type": "uint256"
            },
            {
              "internalType": "address",
              "name": "propertyOwner",
              "type": "address"
            },
            {
              "internalType": "bool",
              "name": "active",
              "type": "bool"
            }
          ],
          "internalType": "struct PropertyRegistry.Property",
          "name": "",
          "type": "tuple"
        }
      ],
      "stateMutability": "view",
      "type": "function"
    },
    {
      "inputs": [],
      "name": "nextPropertyId",
      "outputs": [
        {
          "internalType": "uint256",
          "name": "",
          "type": "uint256"
        }
      ],
      "stateMutability": "view",
      "type": "function"
    },
    {
      "inputs": [],
      "name": "owner",
      "outputs": [
        {
          "internalType": "address",
          "name": "",
          "type": "address"
        }
      ],
      "stateMutability": "view",
      "type": "function"
    },
    {
      "inputs": [
        {
          "internalType": "uint256",
          "name": "",
          "type": "uint256"
        }
      ],
      "name": "properties",
      "outputs": [
        {
          "internalType": "string",
          "name": "metadataURI",
          "type": "string"
        },
        {
          "internalType": "address",
          "name": "fractionalToken",
          "type": "address"
        },
        {
          "internalType": "uint256",
          "name": "totalShares",
          "type": "uint256"
        },
        {
          "internalType": "uint256",
          "name": "sharePriceWei",
          "type": "uint256"
        },
        {
          "internalType": "address",
          "name": "propertyOwner",
          "type": "address"
        },
        {
          "internalType": "bool",
          "name": "active",
          "type": "bool"
        }
      ],
      "stateMutability": "view",
      "type": "function"
    },
    {
      "inputs": [],
      "name": "renounceOwnership",
      "outputs": [],
      "stateMutability": "nonpayable",
      "type": "function"
    },
    {
      "inputs": [
        {
          "internalType": "uint256",
          "name": "propertyId",
          "type": "uint256"
        },
        {
          "internalType": "bool",
          "name": "active",
          "type": "bool"
        }
      ],
      "name": "setPropertyActive",
      "outputs": [],
      "stateMutability": "nonpayable",
      "type": "function"
    },
    {
      "inputs": [
        {
          "internalType": "address",
          "name": "newOwner",
          "type": "address"
        }
      ],
      "name": "transferOwnership",
      "outputs": [],
      "stateMutability": "nonpayable",
      "type": "function"
    }
  ],
  "bytecode": "0x608060405234801561001057600080fd5b50604051610ecc380380610ecc83398101604081905261002f916100be565b806001600160a01b03811661005e57604051631e4fbdf760e01b81526000600482015260240160405180910390fd5b6100678161006e565b50506100ee565b600080546001600160a01b038381166001600160a01b0319831681178455604051919092169283917f8be0079c531659141344cd1fd0a4f28419497f9722a3daafe3b4186f6b6457e09190a35050565b6000602082840312156100d057600080fd5b81516001600160a01b03811681146100e757600080fd5b9392505050565b610dcf806100fd6000396000f3fe608060405234801561001057600080fd5b50600436106100925760003560e01c8063715018a611610066578063715018a6146100fb5780638da5cb5b14610103578063d3918b7a1461011e578063f2fde38b1461013e578063f7b108081461015157600080fd5b8062d913e0146100975780632b9bcb49146100ac57806332665ffb146100d257806339500f34146100f2575b600080fd5b6100aa6100a5366004610894565b610176565b005b6100bf6100ba3660046108fb565b610242565b6040519081526020015b60405180910390f35b6100e56100e03660046109e1565b6103d3565b6040516100c99190610aa3565b6100bf60015481565b6100aa6104d4565b6000546040516001600160a01b0390911681526020016100c9565b61013161012c366004610abd565b6104e8565b6040516100c99190610adf565b6100aa61014c366004610b41565b6106c0565b61016461015f3660046109e1565b6106fe565b6040516100c996959493929190610b5c565b61017e6107cd565b6000828152600260205260409020600101546001600160a01b03166101d85760405162461bcd60e51b815260206004820152600b60248201526a4e4f5f50524f504552545960a81b60448201526064015b60405180910390fd5b600082815260026020526040908190206004018054831515600160a01b0260ff60a01b199091161790555182907f4913279a14e045717d5dc101f12736a9f31ea76548d0c3c8283cf449706d9c649061023690841515815260200190565b60405180910390a25050565b600061024c6107cd565b6001600160a01b0385166102925760405162461bcd60e51b815260206004820152600d60248201526c24a72b20a624a22faa27a5a2a760991b60448201526064016101cf565b60015490506040518060c00160405280878152602001866001600160a01b03168152602001858152602001848152602001836001600160a01b03168152602001600115158152506002600083815260200190815260200160002060008201518160000190816103019190610c31565b506020820151600180830180546001600160a01b039384166001600160a01b0319909116179055604084015160028401556060840151600384015560808401516004909301805460a0909501511515600160a01b026001600160a81b031990951693909216929092179290921790915561037c908290610d07565b600181905550846001600160a01b0316817f9fe11725b5e47fa4a375d31017b08f9f3f919a6f5a1cc3fd1e66b1581017136f8686868b6040516103c29493929190610d20565b60405180910390a395945050505050565b6103db61084a565b60008281526002602052604090819020815160c0810190925280548290829061040390610ba8565b80601f016020809104026020016040519081016040528092919081815260200182805461042f90610ba8565b801561047c5780601f106104515761010080835404028352916020019161047c565b820191906000526020600020905b81548152906001019060200180831161045f57829003601f168201915b505050918352505060018201546001600160a01b03908116602083015260028301546040830152600383015460608301526004909201549182166080820152600160a01b90910460ff16151560a09091015292915050565b6104dc6107cd565b6104e660006107fa565b565b606060006104f68385610d07565b905060015481111561050757506001545b6000848211610517576000610521565b6105218583610d57565b90508067ffffffffffffffff81111561053c5761053c6108c9565b60405190808252806020026020018201604052801561057557816020015b61056261084a565b81526020019060019003908161055a5790505b50925060005b818110156106b757600260006105918389610d07565b81526020019081526020016000206040518060c00160405290816000820180546105ba90610ba8565b80601f01602080910402602001604051908101604052809291908181526020018280546105e690610ba8565b80156106335780601f1061060857610100808354040283529160200191610633565b820191906000526020600020905b81548152906001019060200180831161061657829003601f168201915b505050918352505060018201546001600160a01b03908116602083015260028301546040830152600383015460608301526004909201549182166080820152600160a01b90910460ff16151560a090910152845185908390811061069957610699610d6a565b602002602001018190525080806106af90610d80565b91505061057b565b50505092915050565b6106c86107cd565b6001600160a01b0381166106f257604051631e4fbdf760e01b8152600060048201526024016101cf565b6106fb816107fa565b50565b60026020526000908152604090208054819061071990610ba8565b80601f016020809104026020016040519081016040528092919081815260200182805461074590610ba8565b80156107925780601f1061076757610100808354040283529160200191610792565b820191906000526020600020905b81548152906001019060200180831161077557829003601f168201915b5050505060018301546002840154600385015460049095015493946001600160a01b039283169491935091811690600160a01b900460ff1686565b6000546001600160a01b031633146104e65760405163118cdaa760e01b81523360048201526024016101cf565b600080546001600160a01b038381166001600160a01b0319831681178455604051919092169283917f8be0079c531659141344cd1fd0a4f28419497f9722a3daafe3b4186f6b6457e09190a35050565b6040518060c001604052806060815260200160006001600160a01b03168152602001600081526020016000815260200160006001600160a01b031681526020016000151581525090565b600080604083850312156108a757600080fd5b82359150602083013580151581146108be57600080fd5b809150509250929050565b634e487b7160e01b600052604160045260246000fd5b80356001600160a01b03811681146108f657600080fd5b919050565b600080600080600060a0868803121561091357600080fd5b853567ffffffffffffffff8082111561092b57600080fd5b818801915088601f83011261093f57600080fd5b813581811115610951576109516108c9565b604051601f8201601f19908116603f01168101908382118183101715610979576109796108c9565b816040528281528b602084870101111561099257600080fd5b8260208601602083013760006020848301015280995050505050506109b9602087016108df565b935060408601359250606086013591506109d5608087016108df565b90509295509295909350565b6000602082840312156109f357600080fd5b5035919050565b6000815180845260005b81811015610a2057602081850181015186830182015201610a04565b506000602082860101526020601f19601f83011685010191505092915050565b6000815160c08452610a5560c08501826109fa565b9050602083015160018060a01b0380821660208701526040850151604087015260608501516060870152806080860151166080870152505060a0830151151560a08501528091505092915050565b602081526000610ab66020830184610a40565b9392505050565b60008060408385031215610ad057600080fd5b50508035926020909101359150565b6000602080830181845280855180835260408601915060408160051b870101925083870160005b82811015610b3457603f19888603018452610b22858351610a40565b94509285019290850190600101610b06565b5092979650505050505050565b600060208284031215610b5357600080fd5b610ab6826108df565b60c081526000610b6f60c08301896109fa565b6001600160a01b03978816602084015260408301969096525060608101939093529316608082015291151560a090920191909152919050565b600181811c90821680610bbc57607f821691505b602082108103610bdc57634e487b7160e01b600052602260045260246000fd5b50919050565b601f821115610c2c57600081815260208120601f850160051c81016020861015610c095750805b601f850160051c820191505b81811015610c2857828155600101610c15565b5050505b505050565b815167ffffffffffffffff811115610c4b57610c4b6108c9565b610c5f81610c598454610ba8565b84610be2565b602080601f831160018114610c945760008415610c7c5750858301515b600019600386901b1c1916600185901b178555610c28565b600085815260208120601f198616915b82811015610cc357888601518255948401946001909101908401610ca4565b5085821015610ce15787850151600019600388901b60f8161c191681555b5050505050600190811b01905550565b634e487b7160e01b600052601160045260246000fd5b80820180821115610d1a57610d1a610cf1565b92915050565b84815283602082015260018060a01b0383166040820152608060608201526000610d4d60808301846109fa565b9695505050505050565b81810381811115610d1a57610d1a610cf1565b634e487b7160e01b600052603260045260246000fd5b600060018201610d9257610d92610cf1565b506001019056fea264697066735822122031081f2ed060e56bf33e7475b7367574c3cb99ce31cdece12c6b19cff25f219564736f6c63430008140033",
  "linkReferences": {},
  "deployedLinkReferences": {}
}